S01700002E2E2F70335F70696E675F706F6E672E73726563BF
S11300000030002091040000F5040000F904000011
S113001000000000000000000000000000000000DC
S1130020000000000000000000000000FD040000CB
S113003000000000000000000105000005050000AC
S1130040E92300000D05000011050000150500005E
S1130050F1040000F1040000F1040000F1040000C8
S1130060190500001D0500002105000025050000FC
S1130070290500002D05000031050000F1040000F1
S1130080F1040000F1040000F1040000F104000098
S1130090F1040000F1040000F10400003505000043
S11300A0F1040000F1040000F1040000F104000078
S11300B0F1040000F1040000F1040000F104000068
S1130400FFFFFFFFFFFFFFFFFFFFFFFFFEFFFFFFF9
S1130410402292029A1A92467047C046174B002B0C
S113042000D1134B9D46FFF7F3FF00218B460F4687
S11304301348144A121A03F09BFA0E4B002B00D0F7
S113044098470D4B002B00D0984700200021040052
S11304500D000D48002802D00C4800E000BF03F056
S11304608FFA2000290001F0F1FF03F06DFAC04675
S11304700000080000000000000000000030002020
S113048010F0FF1F98F2FF1F0000000000000000A2
S113049072B60E480E4901600A6882F308880D4856
S11304A080470D490D4A0E4B9B1A03DD043BC85887
S11304B0D050FBDC0B490C4A521A03DD0020885053
S11304C0043AFCDA62B609488047000008ED00E00F
S11304D000000000752D0000E046000000F0FF1F42
S11304E010F0FF1F10F0FF1F98F2FF1F1D04000003
S11304F01148004711480047114800471148004778
S11305001148004711480047114800471148004767
S11305101148004711480047114800471148004757
S11305201148004711480047114800471148004747
S11305301148004711480047F1040000F504000089
S1130540F9040000FD040000010500000505000099
S1130550651B00007D1B0000951B0000AD1B000007
S1130560F1040000F1040000F1040000F1040000B3
S11305703D0E00004112000065120000F10400006D
S11305800023C25C0133002AFBD1581E70470000CF
S1130590002243088B4274D303098B425FD3030ABE
S11305A08B4244D3030B8B4228D3030C8B420DD3D1
S11305B0FF22090212BA030C8B4202D3121209025F
S11305C065D0030B8B4219D300E0090AC30B8B429D
S11305D001D3CB03C01A5241830B8B4201D38B034B
S11305E0C01A5241430B8B4201D34B03C01A5241F0
S11305F0030B8B4201D30B03C01A5241C30A8B4233
S113060001D3CB02C01A5241830A8B4201D38B021D
S1130610C01A5241430A8B4201D34B02C01A5241C1
S1130620030A8B4201D30B02C01A5241CDD2C30933
S11306308B4201D3CB01C01A524183098B4201D3AF
S11306408B01C01A524143098B4201D34B01C01A9A
S1130650524103098B4201D30B01C01A5241C30812
S11306608B4201D3CB00C01A524183088B4201D381
S11306708B00C01A524143088B4201D34B00C01A6D
S11306805241411A00D20146524110467047FFE7D9
S113069001B5002000F0F0F802BDC0460029F7D0F3
S11306A076E7704703460B437FD4002243088B420E
S11306B074D303098B425FD3030A8B4244D3030BE5
S11306C08B4228D3030C8B420DD3FF22090212BAAA
S11306D0030C8B4202D31212090265D0030B8B4226
S11306E019D300E0090AC30B8B4201D3CB03C01A10
S11306F05241830B8B4201D38B03C01A5241430BEB
S11307008B4201D34B03C01A5241030B8B4201D3DA
S11307100B03C01A5241C30A8B4201D3CB02C01A45
S11307205241830A8B4201D38B02C01A5241430ABD
S11307308B4201D34B02C01A5241030A8B4201D3AC
S11307400B02C01A5241CDD2C3098B4201D3CB0153
S1130750C01A524183098B4201D38B01C01A524102
S113076043098B4201D34B01C01A524103098B4206
S113077001D30B01C01A5241C3088B4201D3CB00F1
S1130780C01A524183088B4201D38B00C01A5241D4
S113079043088B4201D34B00C01A5241411A00D284
S11307A001465241104670475DE0CA0F00D04942ED
S11307B0031000D34042534000229C4603098B425D
S11307C02DD3030A8B4212D3FC22890112BA030AE5
S11307D08B420CD3890192118B4208D38901921167
S11307E08B4204D389013AD0921100E08909C309EC
S11307F08B4201D3CB01C01A524183098B4201D3EE
S11308008B01C01A524143098B4201D34B01C01AD8
S1130810524103098B4201D30B01C01A5241C30850
S11308208B4201D3CB00C01A524183088B4201D3BF
S11308308B00C01A5241D9D243088B4201D34B00DA
S1130840C01A5241411A00D20146634652415B101C
S1130850104601D34042002B00D5494270476346FD
S11308605B1000D3404201B5002000F005F802BD42
S11308700029F8D016E770477047C0460448054B76
S113088010B5834203D0044B002B00D0984710BD11
S113089010F0FF1F10F0FF1F00000000064807497A
S11308A0091A8B10C90FC91810B5491003D0044B8D
S11308B0002B00D0984710BD10F0FF1F10F0FF1F51
S11308C00000000010B5074C2378002B09D1FFF776
S11308D0D5FF054B002B02D0044800E000BF0123E4
S11308E0237010BD10F0FF1F00000000B846000088
S11308F0054B10B5002B03D00449054800E000BFA8
S1130900FFF7CCFF10BDC0460000000014F0FF1F2D
S1130910B846000080B584B000AF78607B681B0CDB
S1130920084A94466344FB60FB6819687B681B04AF
S11309301B0C01229A40FB680A431A60C046BD465C
S113094004B080BD0070044080B584B000AF78600E
S11309500023FB6006E00D4A7B68934206D0FB68E7
S11309600133FB60FB68002BF5D000E0C046FB6858
S1130970002B05D0064B074A0748902101F064FE7E
S1130980FB681800BD4604B080BDC04600A0064008
S1130990CC39000038430000F0390000B0B58CB009
S11309A000AFF860B9607A60BB68002B05D18F4B4B
S11309B08F4A9048D72101F047FEBB681B68002B83
S11309C005D18D4B8A4A8B48D82101F03DFE2C235A
S11309D0FB1800221A8000237B62BB681B68BB6182
S11309E004233B625AE0BB681B683A6A534319000C
S11309F07868FFF7CDFD03001A002A217B181A80BE
S1130A000A00BB181B88002B02D1BB1801221A80D4
S1130A102A257B191B883A6A534319007868FFF723
S1130A20B7FD03007B61BB681B687A69D31AFB615D
S1130A30BB681C687B191B8801331A003B6A53434B
S1130A4019007868FFF7A4FD0300E31AFA699A42D3
S1130A5013D9BB681C687B191B8801331A003B6AD5
S1130A60534319007868FFF793FD0300E31AFB6111
S1130A707B191A887B1901321A80FA69BB699A4278
S1130A8009D8FB69BB613B6A7B622C23FB182A22D1
S1130A90BA1812881A803B6A01333B623B6A202BE6
S1130AA0A1D9BB681B6864211800FFF771FD03001E
S1130AB01A0013005B009B18BA699A4201D94F4B84
S1130AC090E0FB681800FFF73FFF4D4B1800FFF75D
S1130AD021FFFB68DB78DBB20C229343DAB2FB68BC
S1130AE0DA707B6A032B0AD97B6A072B07D8FB6869
S1130AF0DB7ADBB202221343DAB2FB68DA72FB68F8
S1130B009B7ADBB21F229343DAB27B6ADBB2013BEE
S1130B10DBB21343DAB2FB689A72FB689B7ADBB2EE
S1130B201F229343DAB22C217B181B881B0A9BB229
S1130B30DBB21343DAB2FB681A707B181B88DAB293
S1130B40FB685A70FB689B78DAB22F203B1813219C
S1130B508A431A70BB681B79002B09D0BB681A79C9
S1130B603B181B781343DAB23B1810210A431A705E
S1130B70FB682F203A1812789A70FB681B78DBB256
S1130B8020229343DAB2FB681A70FB681B78DAB24E
S1130B90BB685B795B01DBB220210B40DBB2134302
S1130BA0DAB2FB681A703B18FA68D2781A70BB681C
S1130BB09B79002B05D03B183A18127808210A4378
S1130BC01A70BB68DB79002B06D02F22BB18BA1829
S1130BD0127804210A431A70FB682F22BA1812787B
S1130BE0DA7000231800BD460CB0B0BD603A0000B6
S1130BF04C430000F0390000683A0000B5040000DE
S1130C000A00341080B582B000AF78607B68002B96
S1130C1006D10D4B0D4A5621FF310D4801F014FD4C
S1130C207B68E12252021A607B6800221A717B6899
S1130C3000225A717B6800229A717B680022DA7163
S1130C40C046BD4602B080BD603A00005843000073
S1130C50F039000080B584B000AF78607B681B7900
S1130C60DBB21A007B685B79DBB21B021343FB60C7
S1130C70FB681800BD4604B080BD000080B584B098
S1130C8000AF786039600B217B1800221A707B1842
S1130C901B78DBB20133DAB27B181A703A6880230E
S1130CA01B02134006D07B6880225A713B68154AA8
S1130CB013403B603A688023DB01134006D07B6815
S1130CC040225A713B68104A13403B603B681F2224
S1130CD013400AD03B68DBB21F221340DAB27B68B0
S1130CE01A713B681F2293433B603B68002B02D080
S1130CF0064BFB6001E00023FB60FB681800BD4667
S1130D0004B080BDFF7FFFFFFFBFFFFFB4040000FE
S1130D1080B584B000AFF860B9607A60BB68002B1E
S1130D2012D10E4B0E4A0F490F4801F08DFCC046FC
S1130D30FB681B79DBB25BB2002BF9DABB685A1C87
S1130D40BA601A78FB68DA717B685A1E7A60002BE5
S1130D50EDD1C046C046BD4604B080BD583A00003F
S1130D607043000009020000F039000080B586B02D
S1130D7000AFF860B9607A60BB68002B47D1294B9B
S1130D80294A86218900294801F05EFCFB68180085
S1130D90FFF760FF03007B617B690822134007D0E3
S1130DA0FB6808211800FFF769FF9723DB0034E094
S1130DB07B690422134006D0FB6804211800FFF766
S1130DC05DFF1B4B29E07B690222134006D0FB68C0
S1130DD002211800FFF752FF164B1EE07B69012227
S1130DE0134006D0FB6801211800FFF747FF124BA0
S1130DF013E0FB681B79DBB21A0020231340C5D033
S1130E00BB685A1CBA60FA68D279D2B21A707B688D
S1130E105A1E7A60002BECD100231800BD4606B0A0
S1130E2080BDC046583A000084430000F0390000F9
S1130E30B9040000BA040000BB04000080B500AF90
S1130E40044B1A68044B1B68044819009047C046B9
S1130E50BD4680BD30F0FF1F2CF0FF1F00A00640F0
S1130E6080B584B000AF78607B681B0C084A944658
S1130E706344FB60FB6819687B681B041B0C01223C
S1130E809A40FB680A431A60C046BD4604B080BD60
S1130E900070044080B584B000AF78600323BB6069
S1130EA00023FB6009E00F4BFA689200D3587A687C
S1130EB09A4207D0FB680133FB60FA68BB689A4228
S1130EC0F1D300E0C046FA68BB689A4205D3064BEA
S1130ED0064A0748A92101F0B7FBFB681800BD4684
S1130EE004B080BD98430000C83A0000B04300003D
S1130EF0E43A0000B0B586B000AFF860B9607A603B
S1130F00BB68002B05D1714B714A7248D42101F0A2
S1130F109BFBBB681B68002B05D16F4B6C4A6D486B
S1130F20D52101F091FB16243B1900221A801523C8
S1130F30FB1800221A7000233B61BB681B681B016D
S1130F4019007868FFF724FB03001A003B191A8084
S1130F503B191B88002B02D13B1901221A8016254C
S1130F607B191B881B0119007868FFF711FB03002C
S1130F701A00BB681B68D31A3B61BB681C687B19E9
S1130F801B8801331B0119007868FFF701FB03007C
S1130F90E31A3A699A4211D9BB681C687B191B8809
S1130FA001331B0119007868FFF7F2FA0300E31A12
S1130FB03B617B191A887B1901321A80BB681B6854
S1130FC064211800FFF7E4FA03001A0013005B0021
S1130FD09B183A699A4201D9404B72E0FB681800A9
S1130FE0FFF758FF02003E4B9200D3581800FFF75A
S1130FF037FFFB68DB78DBB20C229343DAB2FB6881
S1131000DA70FB681B78DBB21F229343DAB2162135
S11310107B181B881B0A9BB2DBB21343DAB2FB6852
S11310201A707B181B88DAB2FB685A70FB689B78CD
S1131030DAB215203B1813218A431A70BB681B7956
S1131040002B09D0BB681A793B181B781343DAB21A
S11310503B1810210A431A70FB6815203A181278BD
S11310609A70FB681B78DBB220229343DAB2BB6828
S11310705B795B01DBB220210B40DBB21343DAB2B4
S1131080FB681A703B18FA68D2781A70BB689B79AF
S1131090002B05D03B183A18127808210A431A701D
S11310A0BB68DB79002B06D01522BB18BA1812785E
S11310B004210A431A70FB681522BA181278DA70F0
S11310C000231800BD4606B0B0BDC0464C3B00002E
S11310D0C4430000E43A0000543B0000F503000060
S11310E0A443000080B582B000AF78607B68002B19
S11310F006D10D4B0D4A5E21FF310D4801F0A4FAD3
S11311007B68E12252021A607B6800221A717B68B4
S113111000225A717B6800229A717B680022DA717E
S1131120C046BD4602B080BD4C3B0000D043000029
S1131130E43A000080B584B000AF78607B681B7926
S1131140DBB21A007B685B79DBB21B021343FB60E2
S1131150FB681800BD4604B080BD80B584B000AF04
S1131160F860B9607A600CE0C046FB681B79DBB2BA
S11311705BB2002BF9DABB685A1CBA601A78FB68B8
S1131180DA717B685A1E7A60002BEDD1C046C046E6
S1131190BD4604B080BD000080B586B000AFF860E5
S11311A0B9607A60BB68002B33D11F4B1F4A8F2173
S11311B089001F4801F048FAFB681800FFF7BAFFDE
S11311C003007B617B690822134001D0194B26E0A0
S11311D07B690422134001D0174B20E07B69022273
S11311E0134001D0154B1AE07B690122134002D051
S11311F0FD239B0013E0FB681B79DBB21A0020235C
S11312001340D9D0BB685A1CBA60FA68D279D2B2FA
S11312101A707B685A1E7A60002BECD100231800E8
S1131220BD4606B080BDC0467C3B0000E8430000DC
S1131230E43A0000F1030000F2030000F3030000AD
S113124080B500AF044B1A68044B5B68044819006E
S11312509047C046BD4680BD40F0FF1F34F0FF1FDD
S113126000B0064080B500AF044B1A68044B9B687D
S1131270044819009047C046BD4680BD40F0FF1F9A
S113128034F0FF1F00C0064080B584B000AF786022
S11312907B681B0C084A94466344FB60FB6819682E
S11312A07B681B041B0C01229A40FB680A431A60EA
S11312B0C046BD4604B080BD0070044080B584B013
S11312C000AF78600023FB6006E00D4A7B68934220
S11312D006D0FB680133FB60FB68002BF5D000E00F
S11312E0C046FB68002B05D0064B074A0748462139
S11312F001F0AAF9FB681800BD4604B080BDC046E1
S113130000B00340BC3B0000FC430000E03B000095
S113131080B584B000AF786039603B68002B05D19C
S11313203F4B404A40484D2101F08EF97B6818003C
S1131330FFF7C4FF3D4B1800FFF7A6FF3B685B783F
S11313401A0003231A403B681B799B000C210B40B5
S11313501343FB603B685B79042B03D0FB681022CA
S11313601343FB603B68DB785B0160221340FA683F
S11313701343FB603B68DB79002B03D0FB688022BE
S11313801343FB607B68FA689A607B68DB680F2212
S11313909343FB603B685B79042B07D03B685B7924
S11313A01A0003231340FA681343FB603B689B79DC
S11313B0002B03D0FB6804221343FB603B689B783B
S11313C0002B03D0FB6808221343FB607B68FA6898
S11313D0DA607B681B6A03229343FB603B681B78DB
S11313E01A0003231340FA681343FB607B68FA680E
S11313F01A623B681B7A002B06D07B685B6A082262
S11314001A437B685A6206E07B685B6A082293434E
S11314101A007B685A62C046BD4604B080BDC0460F
S1131420403C000010440000E03B00001B003C1066
S113143080B582B000AF78607B68002B05D1124B79
S1131440124A13488D2101F0FFF87B6800221A70BC
S11314507B6803225A707B6801229A707B6803229E
S1131460DA707B6801221A717B6804225A717B68E6
S113147000229A717B680022DA717B6800221A725A
S1131480C046BD4602B080BD403C00001C44000084
S1131490E03B000080B586B000AF786017217B1870
S11314A000221A7000233B617B681B6A40221340B0
S11314B009D07B1801221A707B681B6A402293436F
S11314C01A007B681A627B685B6AC0221A437B68D5
S11314D05A620AE07B68180000F068F803004022B2
S11314E0134002D001233B6108E07B68002118000F
S11314F000F0BAF8030080221340EBD07B681B692C
S1131500FB601723FB181B78002B05D07B681B6A34
S113151040221A437B681A627B68180000F046F880
S113152003004022134001D001233B613B69002B9F
S113153001D03B6936E07B68DA6C7B689B6CD2181F
S11315407B685B6CD2187B681B6CD2187B68DB6B86
S1131550D2187B689B6BD318FB60FB685B08802206
S113156012021343FB60FA687B68DA627B68DA6E06
S11315707B689B6ED2187B685B6ED2187B681B6E8F
S1131580D2187B68DB6DD2187B689B6DD318FB6027
S1131590FB685B08802212021343FB60FA687B68D5
S11315A01A6300231800BD4606B080BD80B584B020
S11315B000AF78600023FB607B681B6A80221340C5
S11315C003D0FB6880221343FB607B685B6A402284
S11315D0134003D0FB6840221343FB60FB681800F0
S11315E0BD4604B080BD000080B586B000AFF86091
S11315F0B9607A60BB68012B06D9174B174A54218E
S1131600FF31174801F020F87B68002B06D1154BF9
S1131610124AAA214900124801F016F87B681B6897
S11316201F2213407B617B685B79002B03D07B69AD
S1131630202213437B617B681B79002B03D07B69D9
S1131640402213437B61FB68BA6892007969D150E8
S1131650C046BD4606B080BD503C00003444000086
S1131660E03B0000403C000080B584B000AF7860EF
S113167039603B68012B06D90C4B0D4A6A21FF31B6
S11316800C4800F0E1FF0023FB607B683A6892009D
S1131690D3588022134003D0FB6880221343FB609D
S11316A0FB681800BD4604B080BDC046503C000035
S11316B04C440000E03B000080B582B000AF020063
S11316C0FB1D1A70FB1D1B781A001F231A40044BC4
S11316D0012191400A001A60C046BD4602B080BD97
S11316E000E100E080B584B000AF78607B681B0C3B
S11316F0084A94466344FB60FB6819687B681B04D2
S11317001B0C01229A40FB680A431A60C046BD467E
S113171004B080BD0070044080B582B000AF020008
S1131720FB1D1A70FB1D1B785BB2803306D0FB1DBA
S11317301B785BB21800FFF7BFFF00E0C046BD4650
S113174002B080BD80B584B000AFF860B9607A6043
S1131750BB68032B06D9104B104ADA21FF3110481D
S113176000F072FF7B68002B12D0F968BA688423FA
S11317705B0012018A18D3181B68802252041A4392
S1131780F868B96884235B0009014118CB181A6012
S1131790C046BD4604B080BD703C0000CC4400008F
S11317A09C3C000080B584B000AF78600023FB60EF
S11317B006E00D4A7B68934206D0FB680133FB6068
S11317C0FB68002BF5D000E0C046FB68002B05D079
S11317D0064B074A0748522100F036FFFB68180001
S11317E0BD4604B080BDC04600800040FC3C000003
S11317F06C440000203D000080B582B000AF7860EA
S11318007B681800FFF7CEFF034B1800FFF76AFF51
S1131810C046BD4602B080BD0800401080B586B009
S113182000AFF860B9607A60BB68032B05D9314B0F
S1131830314A3248752100F007FF7B68002B05D13F
S11318402F4B2D4A2D48762100F0FEFE7B68196847
S1131850FB68BA6810321201D1507B685A68F96883
S1131860BB6810331B01CB1804331A607B68DB6838
S11318701B021A0AF868B96884235B00090141183D
S1131880CB181A60F968BA6886235B0012018A18BB
S1131890D3181B687B617B691A4A13407B617B68A0
S11318A0DB7A5A04C023DB021A407B689B7AD90492
S11318B080231B030B401A437B685B7A1905C02302
S11318C09B030B401A437B681B7A99058023DB0337
S11318D00B4013437A6913437B61F968BA68862322
S11318E05B0012018A18D3187A691A60C046BD4693
S11318F006B080BD803D00007C440000203D000017
S1131900AC3D0000FFFF81FF80B586B000AFF860FA
S1131910B9607A60FB68002B05D11D4B1D4A1E4837
S1131920A32100F091FE7B68032B05D91B4B194AB8
S11319301948A42100F088FEFB6810220021180039
S113194002F016F8FB68BA681A607B68DAB2FB68C2
S11319501A71BB681800FFF725FF03007B617B69E0
S11319609B007A68D3183B610D4B3A699200F96881
S1131970D1500C4A7B699B00D2183B69D3181B7861
S11319805BB21800FFF7C8FEC046BD4606B080BD76
S1131990BC3D000094440000203D0000803D000058
S11319A044F0FF1F6844000080B584B000AFF860C5
S11319B0B9607A603B60FB68002B05D14B4B4C4A05
S11319C04C48BF2100F040FEBB68002B05D14A4BB8
S11319D0474A4848C02100F037FE3B68002B05D138
S11319E0464B434A4348C12100F02EFE7B68012B3D
S11319F00BD07B68022B08D07B68042B05D0404BAE
S1131A003B4A3C48C22100F01FFEBB69012B0BD0AE
S1131A10BB69022B08D0BB69042B05D0394B344A6F
S1131A203448C32100F010FEBA68FB681A603A68B3
S1131A30FB685A60FB68FA69DA607B68042B11D092
S1131A407B68042B12D87B68012B03D07B68022BA4
S1131A5004D00BE0FB6801225A7208E0FB68022202
S1131A605A7204E0FB6800225A7200E0C046BB6967
S1131A70042B11D0BB69042B12D8BB69012B03D0F2
S1131A80BB69022B04D00BE0FB680122DA7208E088
S1131A90FB680222DA7204E0FB680022DA7200E0DA
S1131AA0C0462023FB181B78022B13D019DC002B13
S1131AB002D0012B07D014E0FB6801221A72FB68E4
S1131AC001229A720EE0FB6800221A72FB6801225E
S1131AD09A7207E0FB6801221A72FB6800229A726C
S1131AE000E0C046C046BD4604B080BDAC3D000029
S1131AF0A8440000203D0000CC3D0000DC3D000077
S1131B00F03D00002C3E000080B582B000AF78604C
S1131B107B68002B06D1104B104A1E21FF31104860
S1131B2000F092FD7B6818687B681B79190080239C
S1131B305B041A00FFF706FE7B689B68002B06D047
S1131B407B689A687B68D9687B6818009047C046B0
S1131B50BD4602B080BDC046BC3D0000BC44000090
S1131B60203D000080B500AF034B1B681800FFF751
S1131B70CBFFC046BD4680BD44F0FF1F80B500AF1B
S1131B80034B5B681800FFF7BFFFC046BD4680BD2E
S1131B9044F0FF1F80B500AF034B9B681800FFF7AC
S1131BA0B3FFC046BD4680BD44F0FF1F80B500AF03
S1131BB0034BDB681800FFF7A7FFC046BD4680BD96
S1131BC044F0FF1F80B584B000AF78607B681B0CC5
S1131BD0084A94466344FB60FB6819687B681B04ED
S1131BE01B0C01229A40FB680A431A60C046BD469A
S1131BF004B080BD0070044080B584B000AF78604C
S1131C000023FB6006E00D4A7B68934206D0FB6824
S1131C100133FB60FB68002BF5D000E0C046FB6895
S1131C20002B05D0064B074A07484C2100F00CFD59
S1131C30FB681800BD4604B080BDC04600100240D9
S1131C40683E0000E8440000903E000080B582B089
S1131C5000AF78607B681800FFF7CEFF034B1800D5
S1131C60FFF7B0FFC046BD4602B080BD01003C1086
S1131C7080B584B000AF78607B681B0C084A94463A
S1131C806344FB60FB6819687B681B041B0C01221E
S1131C909A40FB680A431A60C046BD4604B080BD42
S1131CA00070044080B584B000AF78600323BB604B
S1131CB00023FB6009E00F4BFA689200D3587A685E
S1131CC09A4207D0FB680133FB60FA68BB689A420A
S1131CD0F1D300E0C046FA68BB689A4205D3064BCC
S1131CE0064A07484E2100F0AFFCFB681800BD46C9
S1131CF004B080BDFC440000F03E00001445000028
S1131D000C3F000080B582B000AF786039603B685A
S1131D10002B05D12E4B2F4A2F48552100F094FC5F
S1131D207B681800FFF7BEFF02002C4B9200D358CB
S1131D301800FFF79DFF3B681B781A0007231A4021
S1131D407B681A603B68DB785B0120221A403B68A1
S1131D505B78590280239B000B401A433B685B79F4
S1131D6099048023DB020B401A433B68DB79190496
S1131D7080235B020B401A433B689B795904802300
S1131D809B020B401A433B689B781906F0231B0502
S1131D900B401A437B6884215A503B681B79002B03
S1131DA008D07B6884229B58C0221A437B68842114
S1131DB05A5008E07B6884229B58C02293431A003F
S1131DC07B6884215A50C046BD4602B080BDC046DF
S1131DD06C3F0000244500000C3F00000845000053
S1131DE080B582B000AF78607B68002B05D1114BC1
S1131DF0114A1248852100F027FC7B6800221A70E2
S1131E007B6800225A707B680022DA707B680022AB
S1131E101A717B6800225A717B6800229A717B6870
S1131E200022DA717B6800229A70C046BD4602B077
S1131E3080BDC0466C3F0000304500000C3F0000F0
S1131E4080B582B000AF0200FB1D1A70FB1D1B7829
S1131E501A001F231A40044B012191400A001A6002
S1131E60C046BD4602B080BD00E100E080B582B04E
S1131E7000AF7860084A094BD358094A1A407B6876
S1131E801906C0239B040B4003491343034A8B5098
S1131E90C046BD4602B080BD00700440041000007E
S1131EA0FFFFFFFC80B582B000AF78600A00FB1C26
S1131EB01A70FB1C1B78002B06D07B681B6A04225B
S1131EC01A437B681A6206E07B681B6A0422934308
S1131ED01A007B681A62C046BD4602B080BD80B558
S1131EE082B000AF78600A00FB1C1A70FB1C1B78E0
S1131EF0002B06D07B681B6A40221A437B681A6257
S1131F0006E07B681B6A402293431A007B681A62CE
S1131F10C046BD4602B080BD80B584B000AFF86055
S1131F20B960FB1D1A70BB68032B06D9114B124A0A
S1131F309E214900114800F087FBF968BA6886239E
S1131F405B0012018A18D3181B680D4A1A40FB1D46
S1131F501B78590780239B050B401A43F868B9681E
S1131F6086235B0009014118CB181A60C046BD46A0
S1131F7004B080BDE83F000080450000144000002C
S1131F80FFFFFFDF80B584B000AFF860B960FB1DD0
S1131F901A70BB68032B06D9114B124AAF214900B2
S1131FA0114800F051FBF968BA6886235B001201FE
S1131FB08A18D3181B680D4A1A40FB1D1B78D905D3
S1131FC080231B040B401A43F868B96886235B001E
S1131FD009014118CB181A60C046BD4604B080BD43
S1131FE0E83F00006845000014400000FFFF7FFF49
S1131FF080B582B000AF786039603B68032B06D9A6
S11320000E4B0F4A6C21FF310E4800F01DFB79681E
S11320103A6886235B0012018A18D3181B68802251
S113202012061A437868396886235B00090141184F
S1132030CB181A60C046BD4602B080BDE83F000020
S1132040504500001440000080B584B000AFF86033
S1132050B9607A60BB68032B06D9104B104ADA21A9
S1132060FF31104800F0F0FA7B68002B12D0F968B9
S1132070BA6884235B0012018A18D3181B68802273
S113208052041A43F868B96884235B0009014118B3
S1132090CB181A60C046BD4604B080BDE83F0000BE
S11320A0D84500001440000080B582B000AF7860CD
S11320B07B68002B06D1124B124A8C2189001248EE
S11320C000F0C2FA7B6819687B681B791A008623C2
S11320D05B0012018A18D3181A687B6818687B6839
S11320E01B7919008023DB051A4386235B00090151
S11320F04118CB181A60C046BD4602B080BDC04628
S1132100D0400000984500001440000080B582B023
S113211000AF786039603B68032B05D90B4B0C4A40
S11321200C48642100F090FA7A683B68D3181B7855
S1132130DBB2802252421343D9B27A683B68D31887
S11321400A1C1A70C046BD4602B080BDE83F0000BC
S1132150C0450000E040000080B584B000AFF860E6
S1132160B9607A60BB68032B05D90F4B0F4A10483E
S1132170822100F069FAFA68BB68D3181B78DBB2D5
S11321803F229343DAB27B68DBB23F210B40DBB2E0
S11321901343D9B2FA68BB68D3180A1C1A70C04634
S11321A0BD4604B080BDC046E83F0000AC45000019
S11321B0E040000080B582B000AF786039607B6891
S11321C03A689A60C046BD4602B080BD80B584B00E
S11321D000AF78600A00FB1C1A707B681B68FB6008
S11321E0FB6818229343FB60FB1C1B78DB0018225E
S11321F01340FA681343FB607B68FA681A60C046B0
S1132200BD4604B080BD000080B500AF064A074B50
S1132210D3588F229343044988221343034A8B5093
S1132220C046BD4680BDC046007004401810000082
S113223090B587B000AF0C243B191800FFF7F8F8ED
S113224021007B1803221A717B1803225A707B1811
S113225000221A727B18114A19001000FFF758F86F
S11322600E4B1800FFF716F93B1D17221A603B1D91
S113227000221A713B1D09481A000021FFF7B4F926
S1132280064B01211800FFF72AFE044B0121180018
S1132290FFF708FEC046BD4607B090BD00B003403E
S11322A080B584B000AF052000F0DCFF0300FB60C4
S11322B00120FFF7DBFD3B1D1800FFF791FD3B1DDF
S11322C00C4A19001000FFF71DFDFB680A491800AD
S11322D0FEF75EF90300013B064A19001000FFF700
S11322E069FF044B01211800FFF770FFC046BD468B
S11322F004B080BD008003401027000080B586B084
S113230004AF0200FB1D1A70FB1D1A78174B9200D4
S1132310D258174917480123029380235B00019385
S11323200423009313000422FFF73EFB114B1248D1
S11323301A000021FFF772FA0F4B00211800FFF773
S113234057FE0D4B012200211800FFF71BFE0A4B1C
S1132350012200211800FFF7DFFD084B1800FFF7EA
S1132360A3FEC046BD4602B080BDC046484500003D
S113237010B0034064F2FF1F0080004054F2FF1FBE
S113238080B500AF144B1800FFF760FC94235B008A
S113239011481A000021FFF7DFFE0F4B002118003F
S11323A0FFF7B4FE0D4B1800FFF726FA0B490C4B50
S11323B000221800FFF7A8FA0A4B00221A70094BF2
S11323C01B78DBB21800FFF799FF0020FFF738FDF8
S11323D0C046BD4680BDC04600100240008000409B
S11323E054F2FF1F74F2FF1F80B582B000AFFB1DD3
S11323F0124A12781A7080235B0411481A000021D3
S1132400FFF722FE0D4B1B78DBB20122D31ADAB29E
S11324100A4B1A70094B1B78DBB21800FFF76EFFEA
S1132420FB1D1A78074B1A60074B1B685A1C064B96
S11324301A60C046BD4602B080BDC04674F2FF1F9C
S11324400080004000F0FF1F78F2FF1F80B584B0C9
S113245000AF00F091F800F0E7FC00F0DDF8204B4D
S1132460180000F0FFF91F491F4B4022180000F02C
S1132470F9F9FFF7DDFEFFF7C7FEFFF781FFFFF76E
S11324800FFF1A4B1B68002BFBDB184B1B68BB6050
S1132490164B012252421A60154BBA689200D35867
S11324A07B60144B1A68B968134B180000F0DAF912
S11324B00023FB600CE0FB689B007A68D3181A6861
S11324C00E4B1100180000F0CDF9FB680133FB60DE
S11324D0FB68072BEFD90A4B180000F0C3F9D0E7CB
S11324E0A041000010270000E441000000F0FF1F9D
S11324F04845000078F2FF1F244200005C420000BF
S11325006442000080B584B000AF78607B681B0C27
S1132510084A94466344FB60FB6819687B681B04A3
S11325201B0C01229A40FB680A431A60C046BD4650
S113253004B080BD0070044080B584B000AFF86082
S1132540B960FB1D1A70FB68BA689200D358094A37
S11325501A40FB1D1B781902E023DB000B401A43D1
S11325601100FB68BA689200D150C046BD4604B061
S113257080BDC046FFF8FFFF80B500AF124B1800C6
S1132580FFF7C0FF114B1800FFF7BCFF104B0222EE
S113259001211800FFF7D0FF0D4B02220221180081
S11325A0FFF7CAFF0B4A0C4BD3580A49072293433F
S11325B0094A8B50094B00221E211800FFF7BCFF6B
S11325C0C046BD4680BDC046090038100D00381015
S11325D000900440007004401010000000D004403B
S11325E080B582B000AF7860084A094BD358094AD5
S11325F01A407B689906C0231B050B40034913430B
S1132600034A8B50C046BD4602B080BD00700440F2
S113261004100000FFFFFFF380B582B000AF01207B
S1132620FFF7DEFF00F008FE03007B607B68E12219
S113263051020448032200F09BF8C046BD4602B094
S113264080BDC04600A0064090B587B002AFF860D8
S1132650B9607A603B60BC68FA68396803487B6893
S11326600093230000F0FEF800BEFDE7684200007E
S113267080B582B000AF78600A00FB1C1A70FB1CA6
S11326801B78002B08D07B68DB78DBB2082213436D
S1132690DAB27B68DA7007E07B68DB78DBB20822A9
S11326A09343DAB27B68DA70C046BD4602B080BD9F
S11326B080B582B000AF78600A00FB1C1A70FB1C66
S11326C01B78002B08D07B68DB78DBB20422134331
S11326D0DAB27B68DA7007E07B68DB78DBB204226D
S11326E09343DAB27B68DA70C046BD4602B080BD5F
S11326F080B582B000AF78600A00FB1C1A70FB1C26
S11327001B78002B08D07B68DB78DBB208221343EC
S1132710DAB27B68DA7007E07B68DB78DBB2082228
S11327209343DAB27B68DA70C046BD4602B080BD1E
S113273080B582B000AF78600A00FB1C1A70FB1CE5
S11327401B78002B08D07B68DB78DBB204221343B0
S1132750DAB27B68DA7007E07B68DB78DBB20422EC
S11327609343DAB27B68DA70C046BD4602B080BDDE
S113277090B589B000AFF860B9603B60FB1D1A707A
S1132780334B1B78002B01D001235CE0304BFA1D46
S113279012781A70FB1D1B78062B05D050DC012B18
S11327A002D0032B26D04BE0FA68294B5A60182438
S11327B03B191800FEF796FC21007B18BA681A60D2
S11327C0234B5B683A6879181800FEF793FB204B9B
S11327D05B6801211800FFF74BFF1D4B5B6801216B
S11327E01800FFF765FF1A4B1A4A9A60184B1A4AE9
S11327F0DA6027E0FA68164B5A6010243B19180077
S1132800FEF700FA21007B18BA681A60104B5B6867
S11328103A6879181800FEF7C1F80D4B5B6801217E
S11328201800FFF765FF0A4B5B6801211800FFF7EA
S11328307FFF074B094A9A60054B094ADA6001E0B9
S1132840042300E000231800BD4609B090BDC04633
S11328507CF2FF1F5B11000099110000110D0000B4
S11328606D0D00000FB480B582B000AF0C4B1B7827
S1132870002B02D101235B420BE01423FB183B60C5
S11328803A683969074B180000F0D6F803007B60FA
S11328907B681800BD4602B080BC08BC04B0184771
S11328A07CF2FF1FA928000090B583B000AF7860C8
S11328B0094B1B78002B02D101235B4208E0064B35
S11328C09C68054B5B68391D01221800A047012351
S11328D01800BD4603B090BD7CF2FF1F80B586B0E2
S11328E000AFB9607A603B600F23FB18021C1A70BA
S11328F0BB687B610DE00F23FB181A783B6A10005C
S113290098473B681B685A1C3B681A607B69013313
S11329107B617A697B689A42EDDBC046C046BD465E
S113292006B080BD80B58CB000AFF860B9607A6045
S11329303B600023FB61FB68BB61BB695A1CBA6145
S113294000221A707B68002B35D0BB681B68FB62C1
S1132950FB6A002B2BD1BB6930221A70FB6901334F
S1132960FB61FB6964E03968F86AFDF79BFE0300CC
S11329703B613B693A685343FA6AD31ABB62BB6A48
S1132980002B06DABB6A3B623B6A3022D31ABB6275
S113299002E0BB6A3033BB623B69FB62BB695A1C11
S11329A0BA61BA6AD2B21A70FB690133FB61FB6A7D
S11329B0002BD8D13BE0BB681B687B627B6A002B91
S11329C032D1BB6930221A70FB690133FB61FB69A8
S11329D02EE03B681900786AFDF7DAFD03007B619D
S11329E03B687A6953437A6AD31A3B623B6A092B80
S11329F003D83B6A30333B620BE03823FB181B7867
S1132A00002B01D0412300E061233A6A9B180A3B62
S1132A103B627B697B62BB695A1CBA613A6AD2B277
S1132A201A70FB690133FB617B6A002BD1D1FB690E
S1132A301800BD460CB080BD90B59DB002AFF860E3
S1132A40B9607A6000233B660023FB650023BB6109
S1132A504A23FB1800221A7000233B61BB687B6683
S1132A607BE17B6C252B07D07A6CFB6810009847C0
S1132A70BB690133BB616DE14B23FB1801221A7062
S1132A8000237B650023BB651BE07B6E01337B6603
S1132A907B6E1B787B647B6C2F2B0DDD7B6C392B61
S1132AA00ADC7A6D13009B009B185B001A007B6C98
S1132AB0D318303B7B6504E07B6E013B7B660123CE
S1132AC0BB65BB6D002BE0D006233B657B6E0133F9
S1132AD07B667B6E1B782E2B24D100233B65002361
S1132AE0BB651BE07B6E01337B667B6E1B787B646E
S1132AF07B6C2F2B0DDD7B6C392B0ADC3A6D1300BC
S1132B009B009B185B001A007B6CD318303B3B6521
S1132B1004E07B6E013B7B660123BB65BB6D002B30
S1132B20E0D002E07B6E013B7B667B6E01337B660B
S1132B307B6E1B787B647B6C642B1BD07B6C692B5A
S1132B4018D07B6C662B15D07B6C462B12D07B6C1B
S1132B50782B0FD07B6C582B0CD07B6C6F2B09D04F
S1132B607B6C622B06D07B6C702B03D07B6C752B3B
S1132B7000D0ABE07B6C642B02D07B6C692B16D14C
S1132B807B681A1D7A601B687B611423F9181C2466
S1132B9038194B23FB181B7800930A230122FFF7F3
S1132BA0C1FE0300FB653A19FB6DD3183B667B6CD1
S1132BB0582B02D07B6C782B1DD17B6C782B03D1E6
S1132BC04B23FB1800221A707B681A1D7A601B685D
S1132BD03B611023F9181C2438194B23FB181B786C
S1132BE0009310230022FFF79DFE0300FB653A19B2
S1132BF0FB6DD3183B667B6C6F2B08D07B6C622B10
S1132C0005D07B6C702B02D07B6C752B40D17B681C
S1132C101A1D7A601B683B617B6C752B1DD07B6C25
S1132C20752B1FDC7B6C702B12D07B6C702B19DC2A
S1132C307B6C622B07D07B6C6F2B13D14A23FB1860
S1132C4008221A700FE04A23FB1802221A700AE0C5
S1132C504A23FB1810221A7005E04A23FB180A22A3
S1132C601A7000E0C0464A23FB181A781023F9189A
S1132C701C2438194B23FB181B78009313000022E3
S1132C80FFF750FE0300FB653A19FB6DD3183B6652
S1132C907A6D1823F818F96DFB680093030020205F
S1132CA0FFF71CFE3B6E002B54D00AE03B6E5A1E0D
S1132CB03A661B781A00FB6810009847BB69013319
S1132CC0BB613B6E1B78002BF0D143E07B6C632B24
S1132CD00DD17B681A1D7A601B68DBB23B643A6CC9
S1132CE0FB6810009847BB690133BB6132E07B6C21
S1132CF0732B28D17B681A1D7A601B68FB64FB6CFC
S1132D00002B27D0FB6C1800FDF73AFC0300FB6591
S1132D107A6D1823F818F96DFB68009303002020DE
S1132D20FFF7DCFD0AE0FB6C5A1CFA641B781A00FE
S1132D30FB6810009847BB690133BB61FB6C1B78CF
S1132D40002BF0D106E07A6CFB6810009847BB6951
S1132D500133BB617B6E01337B667B6E1B787B64C6
S1132D607B6C002B00D07CE6BB691800BD461BB011
S1132D7090BD000080B500AF0B4B9B78DBB21A000E
S1132D800823134007D0084B9B78DBB2064A08217E
S1132D900B43DBB29370054A88235B010021D150B9
S1132DA0C046BD4680BDC04600D007400070044008
S1132DB080B500AF034A044B0449D150C046BD4618
S1132DC080BDC046007004404410000000000310A1
S1132DD080B582B000AF7860034B7A681A60C04651
S1132DE0BD4602B080BDC0468CF2FF1F80B582B0E4
S1132DF000AF0200FB1D1A700A4B1B78DBB23822AD
S1132E009343DAB2FB1D1B78DB00DBB238210B40A5
S1132E10DBB204491343DBB20B70C046BD4602B0BB
S1132E2080BDC0460040064080B500AFFFF7C0FF3C
S1132E30104B180000F09EFC0F4B1800FFF7C8FF62
S1132E4000231800FFF7D2FF0C4B1A0000210020CA
S1132E5000F03AFD022300210022180000F0A8FB34
S1132E60074B180000F092FA064B074A1A60C04656
S1132E70BD4680BD0846000000127A00FB450000F4
S1132E800046000004F0FF1F006CDC0280B582B035
S1132E9000AF7860084B1B68084A134019007B6830
S1132EA09A04C0231B031A40034B0A431A60C0460A
S1132EB0BD4602B080BDC04600700440FFFFF3FF72
S1132EC080B582B000AF7860084A094BD358094AEC
S1132ED01A407B68190480235B020B4003491343A7
S1132EE0034A8B50C046BD4602B080BD007004400A
S1132EF004100000FFFFFEFF80B584B000AF7860CF
S1132F0039600F203B187A6812781A703B183A1807
S1132F1012785F210A401A703B6819783B183A18F6
S1132F2012780A431A707B683A1812781A70C046ED
S1132F30BD4604B080BD80B584B000AF78600A009F
S1132F40FB1C1A700F203B187A6812781A703B1811
S1132F503A1812780F218A431A703B183918FA1C50
S1132F60097812780A431A707B683A1812781A7032
S1132F70C046BD4604B080BD80B500AF074B1B689A
S1132F80002B05D1064B074A0748E121FFF75CFBFC
S1132F90024B1B681800BD4680BDC0468CF2FF1F63
S1132FA0A842000010460000B442000080B582B080
S1132FB000AFFFF7E1FF03007B607B68002B01D1CA
S1132FC07B6840E0224B1B78DBB2DB08DAB2FB1CE7
S1132FD007210A401A70FB1C1B787A68DA40130038
S1132FE07B601B4B5B78DBB21B09DAB2BB1C032191
S1132FF00A401A70BB1C1B78002B23D0FB1C1B78C7
S1133000072B14D01BDC052B02DC002B03DA16E0A3
S1133010062B04D013E07B685B097B6012E07B68BD
S113302014211800FDF7B4FA03007B600AE07B6802
S11330300C211800FDF7ACFA03007B6002E00023CA
S11330407B60C0467B681800BD4602B080BDC046A8
S11330500040064080B500AF0B4B9B79DBB21A00F1
S11330600123134002D1094B1B6809E0084B1A687D
S1133070054B1B7ADBB25B0807210B40DA401300D7
S11330801800BD4680BDC0460040064008F0FF1F42
S11330900CF0FF1F80B500AF074B9B79DBB21A0021
S11330A01023134003D1FFF781FF030001E0034B1A
S11330B01B681800BD4680BD0040064008F0FF1F95
S11330C080B500AFFFF758FF03001800BD4680BD70
S11330D080B584B000AF78607B680E4A934204D810
S11330E00F23FB1800221A700CE07B680A4A9342F3
S11330F004D80F23FB1801221A7003E00F23FB18D6
S113310002221A700F23FB181B781800BD4604B066
S113311080BDC0469798000000127A0080B500AFC9
S11331200B4B1B78DBB25BB2002B0DDA094B1B682F
S1133130002B06D1084B094AAA2149000848FFF789
S113314083FA044B1B6800E000231800BD4680BDD1
S1133150005006408CF2FF1FA842000028460000E1
S1133160B442000080B582B000AF1B4B1B689B0CBF
S113317003221340032B22D025D8002B02D0022B8C
S11331800ED020E0FFF7CAFF020080231B029A4200
S113319003D180231B027B6018E000237B6015E0D1
S11331A00E4B1B68002B06D10D4B0E4AB42149006F
S11331B00D48FFF749FA094B1B687B6006E0FA23C8
S11331C09B007B6002E000237B60C0467B681800A4
S11331D0BD4602B080BDC0460070044090F2FF1F9F
S11331E01443000040460000B442000080B582B0A1
S11331F000AF0F4A0F4BD3581B0C0122134002D0CF
S1133200012B05D00CE000F019F903007B600AE003
S113321000F082F903007B607B685B087B6002E05E
S113322000237B60C0467B681800BD4602B080BDA9
S1133230007004400410000080B500AF00F0C2F834
S1133240064A074BD3581B0F0F22134001331900B2
S1133250FDF79EF903001800BD4680BD00700440D0
S11332604410000080B584B000AF0200FB1D1A704A
S1133270FB1D1B780D2B00D172E000DD79E00B2BD8
S113328000D168E000DD74E00A2B00D15EE000DDCF
S11332906FE0092B55D000DD6BE0082B4CD000DD2E
S11332A067E0072B00D15FE000DD62E0062B3ED033
S11332B05FDC052B36D05CDC042B17D059DC012BEA
S11332C002DC002B03DA54E0022B0FD051E000F0B3
S11332D079F82C4A2C4BD3581B0F0F22134001337F
S11332E01900FDF755F90300FB6045E000F06AF8AA
S11332F0244A254BD3581B0F0F22134001331900C6
S1133300FDF746F90300FB601E4A1F4BD3581B0C04
S11333100722134001331900F868FDF739F9030057
S1133320FB6029E0FFF762FF0300FB6024E0FFF786
S113333019FF0300FB601FE000F0D6F80300FB60F8
S11333401AE000F0BDF80300FB6015E000F076F829
S11333500300FB6010E000F0DFF80300FB600BE00B
S1133360FA239B00FB6007E0FFF7D8FE0300FB6035
S113337002E00023FB60C046FB681800BD4604B0B1
S113338080BDC046007004404410000080B582B087
S113339000AF786009497B685B68094A8B507B6899
S11333A01B781800FFF78CFD7B685B781800FFF72B
S11333B06DFDC046BD4602B080BDC04600700440ED
S11333C04410000080B582B000AF1B4B9B79DBB288
S11333D09B08032213403B603B68032B0FD03B68E0
S11333E0032B20D83B68022B18D03B68022B1AD839
S11333F03B68002B08D03B68012B0AD013E000F097
S11334008BF803007B6011E000F018F803007B6088
S11334100CE0FFF71FFE03007B6007E0FFF7ACFD45
S113342003007B6002E000237B60C0467B681800D9
S1133430BD4602B080BDC0460040064080B582B0A3
S113344000AF1D4B5B78DBB21A000223134006D198
S1133450194B9B79DBB21A002023134001D00023BF
S113346026E0FFF717FE03007B607B68002B01D189
S11334707B681DE0104BDB78DBB25B09DAB2FB1C26
S113348003210A401A700C4BDB78DBB2DB09DAB299
S1133490BB1C01210A401A70FB1C1978BB1C1A784A
S11334A0064B49008A185200D35A1A007B685343CA
S11334B01800BD4602B080BD0040064058460000DA
S11334C080B500AF074B1B78DBB21A000223134010
S11334D001D1002302E0FFF7BDFD03001800BD4643
S11334E080BDC0460040064080B582B000AFFFF703
S11334F0D1FD03007B607B68002B08D0FFF762FFDF
S11335000300DB087A689A4201D87B6800E0002354
S11335101800BD4602B080BD80B582B000AF194B23
S11335209B79DBB21A004023134001D1002325E02C
S1133530FFF7C6FD03007B607B68002B05D1124BAF
S1133540124A13491348FFF77FF80E4B1B79DBB27D
S11335501A001F231340013319007868FDF718F887
S113356003007B60074B5B79DBB21A001F23134017
S113357018331A007B6853437B607B681800BD4690
S113358002B080BD004006402443000068460000AD
S113359055020000B442000080B582B000AF0200C2
S11335A0FB1D1A7000231800BD4602B080BD000048
S11335B090B585B000AF040008001100FB1D221C6B
S11335C01A70BB1D021C1A707B1D0A1C1A70404B1A
S11335D09B79DBB29B0803221340FB603C4B9B7935
S11335E0DAB20B203B1801210A401A70384B1B7ABF
S11335F0DBB25B08DAB20A243B1907210A401A70CD
S11336007A1D3B1912781B789A422ED03B181B78EE
S1133610012B19D1FB68012B06D02D4B1B78DBB293
S11336201A00022313400FD0294B5B78DBB2284ADF
S113363001218B43DBB25370C046254B9B79DBB22F
S11336401A0001231340F8D1214B1B7ADBB22F223D
S11336509343DAB27B1D1B78DB18DBB20E210B40DF
S1133660DBB21B491343DBB20B72194B5B78DBB241
S113367001229343DAB2BB1D1B7801210B40DBB25C
S113368013491343DBB24B70114B1B78DBB203229B
S11336909343DAB20E49FB1D1B781343DBB20B7064
S11336A0FB68012B04D0FB1D1B78022213400AD0B7
S11336B0C046074B9B79DBB21A0001231A40BB1D9D
S11336C01B789A42F5D100231800BD4605B090BD81
S11336D00040064080B584B000AF78607B68002B62
S11336E006D1204B204ABE2189002048FEF7ACFFBA
S11336F00F203B1800221A707B685B781F2213404E
S1133700D9B23B183A1812780A431A70184A3B186F
S11337101B781371164B5B79DBB21F229343DAB229
S11337207B689B781F210B40DBB211491343DBB24A
S11337304B710F4B1B79DAB27B681B781343DBB2F6
S11337400B4A40210B43DBB21371C046084B9B79F3
S1133750DBB21A0040231340F8D0C046C046BD4631
S113376004B080BD304300007C460000B442000039
S113377000400640B0B584B000AF78607B681B6839
S11337800F257C191800FFF7A3FC030023707B6846
S11337901B791B4A19001000FFF7CDFB7B68063329
S11337A0174A19001000FFF7A7FB164B5B78DBB232
S11337B03C229343DAB27B191B781B01DBB2302124
S11337C00B40DBB21343DAB27B685B790D491343D8
S11337D0DBB24B707B685B79002B0DD0084B1B78F8
S11337E0DBB25BB2002B07DAC046064B9B79DBB237
S11337F01A0002231340F8D0C046BD4604B0B0BD41
S1133800005006400040064080B582B000AF020080
S11338103960FB1D1A703B68002B05D1254B264AE5
S113382026492748FEF710FF264B5B78DBB2254A72
S113383002218B43DBB25370224B1B78DBB23B2259
S11338401340DBB21F49802252421343DBB20B7098
S1133850C0461C4B9B79DBB21A001C231340082B77
S1133860F7D1184B5B79DBB2164A40218B43DBB2AC
S11338705371C046134B9B79DBB21A0020231340CB
S1133880F8D13B681800FFF725FF0E4B5B79DBB2DC
S11338900C4A40210B43DBB25371C046094B9B7960
S11338A0DBB21A0020231340F8D000231800BD46D1
S11338B002B080BD30430000904600006405000063
S11338C0B44200000040064080B582B000AF3A60C8
S11338D0FB1D021C1A70BB1D0A1C1A703B68002BCE
S11338E005D1144B144A15491548FEF7ADFEFB1DCE
S11338F01B781800FFF750FE3A68BB1D1B781100B7
S11339001800FFF781FF0F4B1B78DBB20D4A3F21F4
S11339100B40DBB21370C0460A4B9B79DBB21A0032
S11339200C2313400C2BF7D100231800BD4602B022
S113393080BDC04630430000A44600000D060000D0
S1133940B442000000400640074B10B50400002BB1
S113395002D0002100E000BF044B1B68002B00D004
S11339609847200000F030F80000000094F2FF1F98
S113397003008218934200D1704719700133F9E7AC
S113398070B500260C4C0D4D641BA410A64209D141
S1133990002600F091FE0A4C0A4D641BA410A642B6
S11339A005D170BDB300EB5898470136EEE7B3007C
S11339B0EB5898470136F2E7D8460000D846000095
S11339C0DC460000D8460000FEE7C046696E73740A
S11339D0616E6365203C2041525241595F53495AFC
S11339E04528735F6C707363694261736573290062
S11339F02F55736572732F6173686F6B7061756493
S1133A00656C617072696C2F494545452050726F31
S1133A106A656374732F53444B5F325F325F305F68
S1133A204652444D2D4B4C32365A2F6465766963A9
S1133A3065732F4D4B4C32365A342F647269766558
S1133A4072732F66736C5F6C707363692E6300000E
S1133A5068616E646C65000064617461000000005C
S1133A60636F6E6669670000636F6E6669672D3EFB
S1133A7062617564526174655F4270730000000096
S1133A8062617564526174655F4270730000000086
S1133A9072696E6742756666657200007866657263
S1133AA000000000786665722D3E6461746153699C
S1133AB07A650000786665722D3E64617461000069
S1133AC0636F756E74000000696E7374616E636574
S1133AD0203C20756172744172726179436F756E16
S1133AE0740000002F55736572732F6173686F6BD8
S1133AF070617564656C617072696C2F49454545E8
S1133B002050726F6A656374732F53444B5F325F46
S1133B10325F305F4652444D2D4B4C32365A2F643F
S1133B206576696365732F4D4B4C32365A342F6476
S1133B307269766572732F66736C5F756172742E29
S1133B406300000068616E646C650000636F6E66FC
S1133B5069670000636F6E6669672D3E6261756414
S1133B60526174655F4270730000000062617564A5
S1133B70526174655F427073000000006461746197
S1133B800000000072696E67427566666572000027
S1133B907866657200000000786665722D3E646187
S1133BA0746153697A650000786665722D3E6461BC
S1133BB074610000636F756E74000000696E737445
S1133BC0616E6365203C2041525241595F53495A0A
S1133BD04528735F616463313642617365732900FC
S1133BE02F55736572732F6173686F6B70617564A1
S1133BF0656C617072696C2F494545452050726F40
S1133C006A656374732F53444B5F325F325F305F76
S1133C104652444D2D4B4C32365A2F6465766963B7
S1133C2065732F4D4B4C32365A342F647269766566
S1133C3072732F66736C5F61646331362E630000A8
S1133C404E554C4C20213D20636F6E666967000021
S1133C506368616E6E656C47726F7570203C2041BD
S1133C6044435F5343315F434F554E5400000000BB
S1133C706368616E6E656C203C2046534C5F46451C
S1133C8041545552455F444D414D55585F4D4F4445
S1133C90554C455F4348414E4E454C002F55736586
S1133CA072732F6173686F6B70617564656C61709A
S1133CB072696C2F494545452050726F6A6563747B
S1133CC0732F53444B5F325F325F305F4652444D33
S1133CD02D4B4C32365A2F646576696365732F4DCC
S1133CE04B4C32365A342F647269766572732F6680
S1133CF0736C5F646D612E6800000000696E7374FC
S1133D00616E6365203C2041525241595F53495AC8
S1133D104528735F646D6142617365732900000017
S1133D202F55736572732F6173686F6B706175645F
S1133D30656C617072696C2F494545452050726FFE
S1133D406A656374732F53444B5F325F325F305F35
S1133D504652444D2D4B4C32365A2F646576696376
S1133D6065732F4D4B4C32365A342F647269766525
S1133D7072732F66736C5F646D612E6300000000C4
S1133D806368616E6E656C203C2046534C5F46450B
S1133D9041545552455F444D415F4D4F44554C4548
S1133DA05F4348414E4E454C00000000636F6E6611
S1133DB0696720213D204E554C4C000068616E64BB
S1133DC06C6520213D204E554C4C000073726341BC
S1133DD064647220213D204E554C4C00646573741C
S1133DE04164647220213D204E554C4C000000007B
S1133DF0287372635769647468203D3D20315529E6
S1133E00207C7C20287372635769647468203D3D6C
S1133E1020325529207C7C2028737263576964748E
S1133E2068203D3D20345529000000002864657356
S1133E30745769647468203D3D20315529207C7C89
S1133E402028646573745769647468203D3D20328A
S1133E505529207C7C2028646573745769647468D0
S1133E60203D3D2034552900696E7374616E63658D
S1133E70203C2041525241595F53495A4528735FAF
S1133E80646D616D7578426173657329000000008B
S1133E902F55736572732F6173686F6B70617564EE
S1133EA0656C617072696C2F494545452050726F8D
S1133EB06A656374732F53444B5F325F325F305FC4
S1133EC04652444D2D4B4C32365A2F646576696305
S1133ED065732F4D4B4C32365A342F6472697665B4
S1133EE072732F66736C5F646D616D75782E6300F9
S1133EF0696E7374616E6365203C2074706D4172E9
S1133F00726179436F756E74000000002F557365FC
S1133F1072732F6173686F6B70617564656C617027
S1133F2072696C2F494545452050726F6A65637408
S1133F30732F53444B5F325F325F305F4652444DC0
S1133F402D4B4C32365A2F646576696365732F4D59
S1133F504B4C32365A342F647269766572732F660D
S1133F60736C5F74706D2E6300000000636F6E6687
S1133F706967000063686E6C506172616D73000064
S1133F8070776D467265715F487A00006E756D4F8B
S1133F906643686E6C730000737263436C6F636B8B
S1133FA05F487A0063686E6C4E756D626572203C82
S1133FB02046534C5F464541545552455F54504D3D
S1133FC05F4348414E4E454C5F434F554E546E2817
S1133FD0626173652900000063686E6C436F756EDF
S1133FE07420213D202D31006368616E6E656C2064
S1133FF03C2046534C5F464541545552455F444D21
S1134000414D55585F4D4F44554C455F4348414ED3
S11340104E454C002F55736572732F6173686F6B37
S113402070617564656C617072696C2F49454545B2
S11340302050726F6A656374732F4652444D5F4B10
S11340404C32365A5F50726F6A656374732F503303
S11340505F444D415F4144435F4649525F46696C4A
S11340607465722F64656D6F5F636F64652F3031A3
S11340705F646D615F6164635F70696E675F706FD9
S11340806E672F61726D6763632F2E2E2F2E2E2F76
S11340902E2E2F2E2E2F2E2E2F53444B5F325F3277
S11340A05F305F4652444D2D4B4C32365A2F646577
S11340B076696365732F4D4B4C32365A342F6472D4
S11340C069766572732F66736C5F646D612E680028
S11340D068616E646C6520213D204E554C4C000097
S11340E02F55736572732F6173686F6B706175649C
S11340F0656C617072696C2F494545452050726F3B
S11341006A656374732F4652444D5F4B4C32365A82
S11341105F50726F6A656374732F50335F444D410F
S11341205F4144435F4649525F46696C7465722F30
S113413064656D6F5F636F64652F30315F646D61BB
S11341405F6164635F70696E675F706F6E672F6134
S1134150726D6763632F2E2E2F2E2E2F2E2E2F2E51
S11341602E2F2E2E2F53444B5F325F325F305F462B
S113417052444D2D4B4C32365A2F64657669636533
S1134180732F4D4B4C32365A342F647269766572F4
S1134190732F66736C5F646D616D75782E680000B3
S11341A00D0A3D3D3D20503320444D412070696E41
S11341B0672D706F6E67207265666572656E6365E4
S11341C0202853657373696F6E20313A20726177CA
S11341D02064756D70206F6E6C7929203D3D3D0D16
S11341E00A00000053616D706C696E67204144439E
S11341F0305F5345323320285054453330292061F1
S11342007420257520487A2C2025752073616D70E3
S11342106C657320706572206275666665722E0D1A
S11342200A0D0A0062756666657220256C64207248
S11342306561647920286361707475726520232533
S11342406C75292C2066697273742038207261772A
S11342502073616D706C65733A200000256C7520C5
S1134260000000000D0A00004153534552542045FC
S113427052524F52202220257320223A2066696C24
S1134280652022257322204C696E65202225642234
S11342902066756E6374696F6E206E616D65202291
S11342A0257322200A000000675F7874616C304631
S11342B0726571002F55736572732F6173686F6B2C
S11342C070617564656C617072696C2F4945454510
S11342D02050726F6A656374732F53444B5F325F6F
S11342E0325F305F4652444D2D4B4C32365A2F6468
S11342F06576696365732F4D4B4C32365A342F649F
S11343007269766572732F66736C5F636C6F636B2F
S11343102E630000675F7874616C33324672657196
S1134320000000006D6367706C6C30636C6B0000A0
S1134330636F6E66696700004C505343495F47657D
S113434074496E7374616E63650000004C5053438E
S1134350495F496E697400004C505343495F476597
S11343607444656661756C74436F6E6669670000BA
S11343704C505343495F5772697465426C6F636B69
S1134380696E67004C505343495F52656164426CE7
S11343906F636B696E6700000000000000B00640A8
S11343A000C00640000000000B0034100C00341064
S11343B0554152545F476574496E7374616E636509
S11343C000000000554152545F496E6974000000BA
S11343D0554152545F47657444656661756C744316
S11343E06F6E666967000000554152545F52656103
S11343F064426C6F636B696E670000004144433133
S1134400365F476574496E7374616E6365000000BE
S113441041444331365F496E69740000414443317D
S1134420365F47657444656661756C74436F6E6688
S11344306967000041444331365F536574436861E2
S11344406E6E656C436F6E6669670000414443316C
S1134450365F4765744368616E6E656C537461744E
S11344607573466C6167730000010203444D415F3C
S1134470476574496E7374616E636500444D415FB2
S11344805365745472616E73666572436F6E6669C8
S113449067000000444D415F437265617465486183
S11344A06E646C6500000000444D415F507265709D
S11344B06172655472616E7366657200444D415F4A
S11344C048616E646C65495251000000444D415F7F
S11344D0436C6561724368616E6E656C537461749C
S11344E07573466C61677300444D414D55585F4781
S11344F06574496E7374616E6365000000800340E7
S11345000090034000A0034018003C1019003C1028
S11345101A003C1054504D5F476574496E737461C2
S11345206E63650054504D5F496E6974000000006D
S113453054504D5F47657444656661756C74436F90
S11345406E6669670000000054F0FF1F54F1FF1FFE
S1134550444D415F456E61626C65496E746572726B
S11345607570747300000000444D415F456E6162D4
S11345706C654173796E635265717565737400007F
S1134580444D415F456E61626C654379636C65536C
S11345907465616C00000000444D415F53746172A6
S11345A0745472616E73666572000000444D414D2F
S11345B055585F536574536F75726365000000004E
S11345C0444D414D55585F456E61626C6543686169
S11345D06E6E656C00000000444D415F436C656184
S11345E0724368616E6E656C537461747573466C66
S11345F06167730007020000000000000100000072
S1134600010300000000011000127A000004800081
S1134610434C4F434B5F4765744D63674578744320
S11346206C6B467265710000434C4F434B5F4765AA
S1134630744F7363304572436C6B4672657100004E
S1134640434C4F434B5F476574457233326B436C45
S11346506B467265710000008002DC020005B8053B
S113466080079508000A710B434C4F434B5F476525
S113467074506C6C3046726571000000434C4F43BB
S11346804B5F456E61626C65506C6C3000000000DD
S1134690434C4F434B5F5365745062654D6F646583
S11346A000000000434C4F434B5F426F6F74546FE4
S11346B05065654D6F646500F8B5C046F8BC08BC2C
S11346C09E467047F8B5C046F8BC08BC9E46704785
S10B46D040BDFF7F0100000062
S10746D8F1080000E1
S10746DCC508000009
S11346E0FFFFFFFF000040010080000000093D00C3
S903049167
